{
  "_format": "hh-sol-artifact-1",
  "contractName": "SupplyChain",
  "sourceName": "contracts/SupplyChain.sol",
  "abi": [
    {
      "anonymous": false,
      "inputs": [
        {
          "indexed": false,
          "internalType": "uint256",
          "name": "orderId",
          "type": "uint256"
        },
        {
          "indexed": false,
          "internalType": "uint256",
          "name": "productId",
          "type": "uint256"
        },
        {
          "indexed": false,
          "internalType": "uint256",
          "name": "quantity",
          "type": "uint256"
        },
        {
          "indexed": false,
          "internalType": "address",
          "name": "buyer",
          "type": "address"
        },
        {
          "indexed": false,
          "internalType": "string",
          "name": "deliveryAddress",
          "type": "string"
        }
      ],
      "name": "OrderPlaced",
      "type": "event"
    },
    {
      "anonymous": false,
      "inputs": [
        {
          "indexed": false,
          "internalType": "uint256",
          "name": "productId",
          "type": "uint256"
        },
        {
          "indexed": false,
          "internalType": "string",
          "name": "name",
          "type": "string"
        },
        {
          "indexed": false,
          "internalType": "uint256",
          "name": "price",
          "type": "uint256"
        },
        {
          "indexed": false,
          "internalType": "uint256",
          "name": "quantity",
          "type": "uint256"
        },
        {
          "indexed": false,
          "internalType": "address",
          "name": "seller",
          "type": "address"
        }
      ],
      "name": "ProductAdded",
      "type": "event"
    },
    {
      "inputs": [
        {
          "internalType": "string",
          "name": "name",
          "type": "string"
        },
        {
          "internalType": "uint256",
          "name": "price",
          "type": "uint256"
        },
        {
          "internalType": "uint256",
          "name": "quantity",
          "type": "uint256"
        }
      ],
      "name": "addProduct",
      "outputs": [],
      "stateMutability": "nonpayable",
      "type": "function"
    },
    {
      "inputs": [],
      "name": "getAllProducts",
      "outputs": [
        {
          "components": [
            {
              "internalType": "uint256",
              "name": "id",
              "type": "uint256"
            },
            {
              "internalType": "string",
              "name": "name",
              "type": "string"
            },
            {
              "internalType": "uint256",
              "name": "price",
              "type": "uint256"
            },
            {
              "internalType": "uint256",
              "name": "quantity",
              "type": "uint256"
            },
            {
              "internalType": "address",
              "name": "seller",
              "type": "address"
            }
          ],
          "internalType": "struct SupplyChain.Product[]",
          "name": "",
          "type": "tuple[]"
        }
      ],
      "stateMutability": "view",
      "type": "function"
    },
    {
      "inputs": [
        {
          "internalType": "uint256",
          "name": "orderId",
          "type": "uint256"
        }
      ],
      "name": "getOrder",
      "outputs": [
        {
          "components": [
            {
              "internalType": "uint256",
              "name": "id",
              "type": "uint256"
            },
            {
              "internalType": "uint256",
              "name": "productId",
              "type": "uint256"
            },
            {
              "internalType": "uint256",
              "name": "quantity",
              "type": "uint256"
            },
            {
              "internalType": "address",
              "name": "buyer",
              "type": "address"
            },
            {
              "internalType": "string",
              "name": "deliveryAddress",
              "type": "string"
            }
          ],
          "internalType": "struct SupplyChain.Order",
          "name": "",
          "type": "tuple"
        }
      ],
      "stateMutability": "view",
      "type": "function"
    },
    {
      "inputs": [
        {
          "internalType": "uint256",
          "name": "productId",
          "type": "uint256"
        }
      ],
      "name": "getProduct",
      "outputs": [
        {
          "components": [
            {
              "internalType": "uint256",
              "name": "id",
              "type": "uint256"
            },
            {
              "internalType": "string",
              "name": "name",
              "type": "string"
            },
            {
              "internalType": "uint256",
              "name": "price",
              "type": "uint256"
            },
            {
              "internalType": "uint256",
              "name": "quantity",
              "type": "uint256"
            },
            {
              "internalType": "address",
              "name": "seller",
              "type": "address"
            }
          ],
          "internalType": "struct SupplyChain.Product",
          "name": "",
          "type": "tuple"
        }
      ],
      "stateMutability": "view",
      "type": "function"
    },
    {
      "inputs": [],
      "name": "orderCount",
      "outputs": [
        {
          "internalType": "uint256",
          "name": "",
          "type": "uint256"
        }
      ],
      "stateMutability": "view",
      "type": "function"
    },
    {
      "inputs": [
        {
          "internalType": "uint256",
          "name": "",
          "type": "uint256"
        }
      ],
      "name": "orders",
      "outputs": [
        {
          "internalType": "uint256",
          "name": "id",
          "type": "uint256"
        },
        {
          "internalType": "uint256",
          "name": "productId",
          "type": "uint256"
        },
        {
          "internalType": "uint256",
          "name": "quantity",
          "type": "uint256"
        },
        {
          "internalType": "address",
          "name": "buyer",
          "type": "address"
        },
        {
          "internalType": "string",
          "name": "deliveryAddress",
          "type": "string"
        }
      ],
      "stateMutability": "view",
      "type": "function"
    },
    {
      "inputs": [
        {
          "internalType": "uint256",
          "name": "productId",
          "type": "uint256"
        },
        {
          "internalType": "uint256",
          "name": "quantity",
          "type": "uint256"
        },
        {
          "internalType": "string",
          "name": "deliveryAddress",
          "type": "string"
        }
      ],
      "name": "placeOrder",
      "outputs": [],
      "stateMutability": "nonpayable",
      "type": "function"
    },
    {
      "inputs": [],
      "name": "productCount",
      "outputs": [
        {
          "internalType": "uint256",
          "name": "",
          "type": "uint256"
        }
      ],
      "stateMutability": "view",
      "type": "function"
    },
    {
      "inputs": [
        {
          "internalType": "uint256",
          "name": "",
          "type": "uint256"
        }
      ],
      "name": "products",
      "outputs": [
        {
          "internalType": "uint256",
          "name": "id",
          "type": "uint256"
        },
        {
          "internalType": "string",
          "name": "name",
          "type": "string"
        },
        {
          "internalType": "uint256",
          "name": "price",
          "type": "uint256"
        },
        {
          "internalType": "uint256",
          "name": "quantity",
          "type": "uint256"
        },
        {
          "internalType": "address",
          "name": "seller",
          "type": "address"
        }
      ],
      "stateMutability": "view",
      "type": "function"
    },
    {
      "inputs": [
        {
          "internalType": "uint256",
          "name": "productId",
          "type": "uint256"
        },
        {
          "internalType": "uint256",
          "name": "price",
          "type": "uint256"
        },
        {
          "internalType": "uint256",
          "name": "quantity",
          "type": "uint256"
        }
      ],
      "name": "updateProduct",
      "outputs": [],
      "stateMutability": "nonpayable",
      "type": "function"
    }
  ],
  "bytecode": "0x608060405260008055600060015534801561001957600080fd5b50611b0d806100296000396000f3fe608060405234801561001057600080fd5b506004361061009e5760003560e01c8063a85c38ef11610066578063a85c38ef1461014b578063b9db15b41461017f578063d09ef241146101af578063e0f6ef87146101df578063f85292ca146101fd5761009e565b806302ee3a52146100a3578063125b0b34146100c15780632453ffa8146100dd57806355a5b04f146100fb5780637acc0b2014610117575b600080fd5b6100ab610219565b6040516100b891906115ca565b60405180910390f35b6100db60048036038101906100d69190610f9f565b610439565b005b6100e56105f4565b6040516100f291906116f0565b60405180910390f35b6101156004803603810190610110919061102f565b6105fa565b005b610131600480360381019061012c9190611006565b610811565b60405161014295949392919061170b565b60405180910390f35b61016560048036038101906101609190611006565b6108ef565b6040516101769594939291906117bf565b60405180910390f35b61019960048036038101906101949190611006565b6109cd565b6040516101a691906116ce565b60405180910390f35b6101c960048036038101906101c49190611006565b610b00565b6040516101d691906116ac565b60405180910390f35b6101e7610c33565b6040516101f491906116f0565b60405180910390f35b61021760048036038101906102129190611096565b610c39565b005b60606000805467ffffffffffffffff81111561025e577f4e487b7100000000000000000000000000000000000000000000000000000000600052604160045260246000fd5b60405190808252806020026020018201604052801561029757816020015b610284610df5565b81526020019060019003908161027c5790505b5090506000600190505b600054811161043157600260008281526020019081526020016000206040518060a0016040529081600082015481526020016001820180546102e2906119a7565b80601f016020809104026020016040519081016040528092919081815260200182805461030e906119a7565b801561035b5780601f106103305761010080835404028352916020019161035b565b820191906000526020600020905b81548152906001019060200180831161033e57829003601f168201915b5050505050815260200160028201548152602001600382015481526020016004820160009054906101000a900473ffffffffffffffffffffffffffffffffffffffff1673ffffffffffffffffffffffffffffffffffffffff1673ffffffffffffffffffffffffffffffffffffffff1681525050826001836103dc91906118f5565b81518110610413577f4e487b7100000000000000000000000000000000000000000000000000000000600052603260045260246000fd5b60200260200101819052508080610429906119d9565b9150506102a1565b508091505090565b6000821161047c576040517f08c379a00000000000000000000000000000000000000000000000000000000081526004016104739061160c565b60405180910390fd5b600081116104bf576040517f08c379a00000000000000000000000000000000000000000000000000000000081526004016104b69061168c565b60405180910390fd5b6000808154809291906104d1906119d9565b91905055506040518060a0016040528060005481526020018481526020018381526020018281526020013373ffffffffffffffffffffffffffffffffffffffff16815250600260008054815260200190815260200160002060008201518160000155602082015181600101908051906020019061054f929190610e3a565b50604082015181600201556060820151816003015560808201518160040160006101000a81548173ffffffffffffffffffffffffffffffffffffffff021916908373ffffffffffffffffffffffffffffffffffffffff1602179055509050507f3d62634187d659619c5db5d026cc9a7da427c566510a5b8cb210293bf9fd530e600054848484336040516105e795949392919061170b565b60405180910390a1505050565b60015481565b600060026000858152602001908152602001600020600001541415610654576040517f08c379a000000000000000000000000000000000000000000000000000000000815260040161064b906115ec565b60405180910390fd5b81600260008581526020019081526020016000206003015410156106ad576040517f08c379a00000000000000000000000000000000000000000000000000000000081526004016106a49061162c565b60405180910390fd5b816002600085815260200190815260200160002060030160008282546106d391906118f5565b92505081905550600160008154809291906106ed906119d9565b91905055506040518060a0016040528060015481526020018481526020018381526020013373ffffffffffffffffffffffffffffffffffffffff1681526020018281525060036000600154815260200190815260200160002060008201518160000155602082015181600101556040820151816002015560608201518160030160006101000a81548173ffffffffffffffffffffffffffffffffffffffff021916908373ffffffffffffffffffffffffffffffffffffffff16021790555060808201518160040190805190602001906107c7929190610e3a565b509050507f14bf9b3c7ff7ff56fac45c02003e53006d53aabd51ab8e90d043ee619bd47693600154848433856040516108049594939291906117bf565b60405180910390a1505050565b600260205280600052604060002060009150905080600001549080600101805461083a906119a7565b80601f0160208091040260200160405190810160405280929190818152602001828054610866906119a7565b80156108b35780601f10610888576101008083540402835291602001916108b3565b820191906000526020600020905b81548152906001019060200180831161089657829003601f168201915b5050505050908060020154908060030154908060040160009054906101000a900473ffffffffffffffffffffffffffffffffffffffff16905085565b60036020528060005260406000206000915090508060000154908060010154908060020154908060030160009054906101000a900473ffffffffffffffffffffffffffffffffffffffff169080600401805461094a906119a7565b80601f0160208091040260200160405190810160405280929190818152602001828054610976906119a7565b80156109c35780601f10610998576101008083540402835291602001916109c3565b820191906000526020600020905b8154815290600101906020018083116109a657829003601f168201915b5050505050905085565b6109d5610df5565b600260008381526020019081526020016000206040518060a001604052908160008201548152602001600182018054610a0d906119a7565b80601f0160208091040260200160405190810160405280929190818152602001828054610a39906119a7565b8015610a865780601f10610a5b57610100808354040283529160200191610a86565b820191906000526020600020905b815481529060010190602001808311610a6957829003601f168201915b5050505050815260200160028201548152602001600382015481526020016004820160009054906101000a900473ffffffffffffffffffffffffffffffffffffffff1673ffffffffffffffffffffffffffffffffffffffff1673ffffffffffffffffffffffffffffffffffffffff16815250509050919050565b610b08610ec0565b600360008381526020019081526020016000206040518060a00160405290816000820154815260200160018201548152602001600282015481526020016003820160009054906101000a900473ffffffffffffffffffffffffffffffffffffffff1673ffffffffffffffffffffffffffffffffffffffff1673ffffffffffffffffffffffffffffffffffffffff168152602001600482018054610baa906119a7565b80601f0160208091040260200160405190810160405280929190818152602001828054610bd6906119a7565b8015610c235780601f10610bf857610100808354040283529160200191610c23565b820191906000526020600020905b815481529060010190602001808311610c0657829003601f168201915b5050505050815250509050919050565b60005481565b823373ffffffffffffffffffffffffffffffffffffffff166002600083815260200190815260200160002060040160009054906101000a900473ffffffffffffffffffffffffffffffffffffffff1673ffffffffffffffffffffffffffffffffffffffff1614610cde576040517f08c379a0000000000000000000000000000000000000000000000000000000008152600401610cd59061166c565b60405180910390fd5b60008311610d21576040517f08c379a0000000000000000000000000000000000000000000000000000000008152600401610d189061160c565b60405180910390fd5b6000821015610d65576040517f08c379a0000000000000000000000000000000000000000000000000000000008152600401610d5c9061164c565b60405180910390fd5b8260026000868152602001908152602001600020600201819055508160026000868152602001908152602001600020600301819055507f3d62634187d659619c5db5d026cc9a7da427c566510a5b8cb210293bf9fd530e8460026000878152602001908152602001600020600101858533604051610de7959493929190611765565b60405180910390a150505050565b6040518060a0016040528060008152602001606081526020016000815260200160008152602001600073ffffffffffffffffffffffffffffffffffffffff1681525090565b828054610e46906119a7565b90600052602060002090601f016020900481019282610e685760008555610eaf565b82601f10610e8157805160ff1916838001178555610eaf565b82800160010185558215610eaf579182015b82811115610eae578251825591602001919060010190610e93565b5b509050610ebc9190610f05565b5090565b6040518060a00160405280600081526020016000815260200160008152602001600073ffffffffffffffffffffffffffffffffffffffff168152602001606081525090565b5b80821115610f1e576000816000905550600101610f06565b5090565b6000610f35610f308461184a565b611819565b905082815260208101848484011115610f4d57600080fd5b610f58848285611965565b509392505050565b600082601f830112610f7157600080fd5b8135610f81848260208601610f22565b91505092915050565b600081359050610f9981611ac0565b92915050565b600080600060608486031215610fb457600080fd5b600084013567ffffffffffffffff811115610fce57600080fd5b610fda86828701610f60565b9350506020610feb86828701610f8a565b9250506040610ffc86828701610f8a565b9150509250925092565b60006020828403121561101857600080fd5b600061102684828501610f8a565b91505092915050565b60008060006060848603121561104457600080fd5b600061105286828701610f8a565b935050602061106386828701610f8a565b925050604084013567ffffffffffffffff81111561108057600080fd5b61108c86828701610f60565b9150509250925092565b6000806000606084860312156110ab57600080fd5b60006110b986828701610f8a565b93505060206110ca86828701610f8a565b92505060406110db86828701610f8a565b9150509250925092565b60006110f183836114c0565b905092915050565b61110281611929565b82525050565b61111181611929565b82525050565b60006111228261189f565b61112c81856118c2565b93508360208202850161113e8561187a565b8060005b8581101561117a578484038952815161115b85826110e5565b9450611166836118b5565b925060208a01995050600181019050611142565b50829750879550505050505092915050565b6000611197826118aa565b6111a181856118d3565b93506111b1818560208601611974565b6111ba81611aaf565b840191505092915050565b60006111d0826118aa565b6111da81856118e4565b93506111ea818560208601611974565b6111f381611aaf565b840191505092915050565b6000815461120b816119a7565b61121581866118e4565b94506001821660008114611230576001811461124257611275565b60ff1983168652602086019350611275565b61124b8561188a565b60005b8381101561126d5781548189015260018201915060208101905061124e565b808801955050505b50505092915050565b600061128b6016836118e4565b91507f50726f6475637420646f6573206e6f74206578697374000000000000000000006000830152602082019050919050565b60006112cb601f836118e4565b91507f5072696365206d7573742062652067726561746572207468616e207a65726f006000830152602082019050919050565b600061130b601d836118e4565b91507f496e73756666696369656e742070726f64756374207175616e746974790000006000830152602082019050919050565b600061134b601d836118e4565b91507f5175616e74697479206d757374206265206e6f6e2d6e656761746976650000006000830152602082019050919050565b600061138b6027836118e4565b91507f4f6e6c79207468652073656c6c65722063616e206d6f6469667920746869732060008301527f70726f64756374000000000000000000000000000000000000000000000000006020830152604082019050919050565b60006113f16022836118e4565b91507f5175616e74697479206d7573742062652067726561746572207468616e207a6560008301527f726f0000000000000000000000000000000000000000000000000000000000006020830152604082019050919050565b600060a08301600083015161146260008601826115ac565b50602083015161147560208601826115ac565b50604083015161148860408601826115ac565b50606083015161149b60608601826110f9565b50608083015184820360808601526114b3828261118c565b9150508091505092915050565b600060a0830160008301516114d860008601826115ac565b50602083015184820360208601526114f0828261118c565b915050604083015161150560408601826115ac565b50606083015161151860608601826115ac565b50608083015161152b60808601826110f9565b508091505092915050565b600060a08301600083015161154e60008601826115ac565b5060208301518482036020860152611566828261118c565b915050604083015161157b60408601826115ac565b50606083015161158e60608601826115ac565b5060808301516115a160808601826110f9565b508091505092915050565b6115b58161195b565b82525050565b6115c48161195b565b82525050565b600060208201905081810360008301526115e48184611117565b905092915050565b600060208201905081810360008301526116058161127e565b9050919050565b60006020820190508181036000830152611625816112be565b9050919050565b60006020820190508181036000830152611645816112fe565b9050919050565b600060208201905081810360008301526116658161133e565b9050919050565b600060208201905081810360008301526116858161137e565b9050919050565b600060208201905081810360008301526116a5816113e4565b9050919050565b600060208201905081810360008301526116c6818461144a565b905092915050565b600060208201905081810360008301526116e88184611536565b905092915050565b600060208201905061170560008301846115bb565b92915050565b600060a08201905061172060008301886115bb565b818103602083015261173281876111c5565b905061174160408301866115bb565b61174e60608301856115bb565b61175b6080830184611108565b9695505050505050565b600060a08201905061177a60008301886115bb565b818103602083015261178c81876111fe565b905061179b60408301866115bb565b6117a860608301856115bb565b6117b56080830184611108565b9695505050505050565b600060a0820190506117d460008301886115bb565b6117e160208301876115bb565b6117ee60408301866115bb565b6117fb6060830185611108565b818103608083015261180d81846111c5565b90509695505050505050565b6000604051905081810181811067ffffffffffffffff821117156118405761183f611a80565b5b8060405250919050565b600067ffffffffffffffff82111561186557611864611a80565b5b601f19601f8301169050602081019050919050565b6000819050602082019050919050565b60008190508160005260206000209050919050565b600081519050919050565b600081519050919050565b6000602082019050919050565b600082825260208201905092915050565b600082825260208201905092915050565b600082825260208201905092915050565b60006119008261195b565b915061190b8361195b565b92508282101561191e5761191d611a22565b5b828203905092915050565b60006119348261193b565b9050919050565b600073ffffffffffffffffffffffffffffffffffffffff82169050919050565b6000819050919050565b82818337600083830152505050565b60005b83811015611992578082015181840152602081019050611977565b838111156119a1576000848401525b50505050565b600060028204905060018216806119bf57607f821691505b602082108114156119d3576119d2611a51565b5b50919050565b60006119e48261195b565b91507fffffffffffffffffffffffffffffffffffffffffffffffffffffffffffffffff821415611a1757611a16611a22565b5b600182019050919050565b7f4e487b7100000000000000000000000000000000000000000000000000000000600052601160045260246000fd5b7f4e487b7100000000000000000000000000000000000000000000000000000000600052602260045260246000fd5b7f4e487b7100000000000000000000000000000000000000000000000000000000600052604160045260246000fd5b6000601f19601f8301169050919050565b611ac98161195b565b8114611ad457600080fd5b5056fea264697066735822122039bae64153f52dee85f424431dcfb27f9e3b0f0bf4ba8af92f8b3b22853effc364736f6c63430008000033",
  "linkReferences": {},
  "deployedLinkReferences": {}
}